:020000040800F2
:100000008018002091010008132A0008E525000847
:10001000112A0008C505000835340008000000005A
:100020000000000000000000000000002B2C000871
:100030001706000800000000152A00082D2C0008F3
:10004000AB010008AB010008AB010008AB010008E0
:10005000AB010008AB010008AB010008AB010008D0
:10006000AB010008AB010008AB010008AB010008C0
:10007000AB010008AB010008C9050008D505000860
:10008000AB010008E1050008AB010008AB01000866
:10009000AB010008AB010008AB010008AB01000890
:1000A000AB010008B52C0008AB010008AB0100084B
:1000B000AB010008C12C000800000000AB010008E3
:1000C000AB0100080000000000000000AB010008C8
:1000D00000000000F1330008AB0100080000000040
:1000E000AB010008AB010008AB01000800F002F80A
:1000F00000F03FF80AA090E8000C82448344AAF183
:100100000107DA4501D100F034F8AFF2090EBAE880
:100110000F0013F0010F18BFFB1A43F0010318473B
:10012000183C0000383C0000103A24BF78C878C161
:10013000FAD8520724BF30C830C144BF04680C60ED
:10014000704700000023002400250026103A28BF35
:1001500078C1FBD8520728BF30C148BF0B60704739
:10016000632900F03C81002070471FB51FBD10B50A
:1001700010BD00F0F4F91146FFF7F7FF03F066FA3F
:1001800000F012FA03B4FFF7F2FF03BC03F05CFACD
:100190000948804709480047FEE7FEE7FEE7FEE71B
:1001A000FEE7FEE7FEE7FEE7FEE7FEE70448054957
:1001B000054A064B70470000B12C0008ED0000080E
:1001C000801200208018002080140020801400205D
:1001D000704700000FB41CB5074B06AA7B44694664
:1001E0000090059800F0D9F80020694600F0E8F882
:1001F0001CBC5DF814FB0000E10100002DE9F0419A
:100200000E460446002020622046E168884730B34D
:10021000252805D0D4E901219047206A401CF2E747
:10022000E168204600278847050018D0A5F1410065
:10023000192802D820354FF4006732462946204657
:100240002760FFF78DFF40B1012804D0F61D26F08E
:1002500007060836D8E7361DD6E72846DAE7206ACB
:10026000BDE8F08170B50C460546012A05D0287816
:10027000800600D5EA69002302E0012305E05B1C4B
:10028000934202D2E05C0028F9D1A869E618C01AAE
:10029000A861286A184428622846AFF3008004E069
:1002A000D5E9012114F8010B9047B442F8D3284650
:1002B000AFF3008070BD431A28BF9A4240F29B8082
:1002C000032A1044114440F2268010F0030F1EBF91
:1002D00011F8013D521E00F8013D10F0030F7FF4AC
:1002E000F6AF11F0030300F0DE80083AC0F00B8097
:1002F00051F8043D083A51F804CD40F8043D40F867
:1003000004CDFFF7F3BF121D5CBF51F8043D40F868
:10031000043DAFF30080D20724BF11F8013D11F86E
:1003200001CD48BF11F8012C24BF00F8013D00F8B1
:1003300001CD48BF00F8012C70474FF0000200B516
:10034000134694469646203922BFA0E80C50A0E8F8
:100350000C50B1F12001BFF4F7AF090728BFA0E8A6
:100360000C5048BF0CC05DF804EB890028BF40F872
:10037000042B08BF704748BF20F8022B11F0804FB4
:1003800018BF00F8012B70477047704770477047DF
:1003900001694A1C02610878704700B58FB0CDE949
:1003A00001310021059105497944CDE90310114639
:1003B0006846FFF723FF0FB000BD0000E5FFFFFF19
:1003C0000A6802F8010B0A60704710B5436913B15F
:1003D000AFF3008001E0FFF745FF012010BD127868
:1003E00000F124010A7000224A700122EDE7116831
:1003F0004FF0FF32E9E7032A40F2308010F0030C9F
:1004000000F0158011F8013BBCF1020F624498BF67
:1004100011F801CB00F8013B38BF11F8013BA2F104
:10042000040298BF00F801CB38BF00F8013B11F07F
:10043000030300F06280083AC0F0088051F8043BE2
:10044000083A51F804CBA0E80810F5E7121D5CBF8C
:1004500051F8043B40F8043BAFF30080D20724BFBF
:1004600011F8013B11F801CB48BF11F8012B24BF53
:1004700000F8013B00F801CB48BF00F8012B7047A2
:10048000431A28BF9A4240F23880104410F0030FFC
:1004900011441EBF11F8013D521E00F8013D10F03D
:1004A000030F7FF4F6AF103AC0F00A8010B531E9BF
:1004B0001850103A20E91850BFF4F9AFBDE81040C9
:1004C000530724BF31E9081020E9081044BF51F850
:1004D000043D40F8043D12F0030F08BF7047D207F7
:1004E00028BF31F8023D48BF11F8012C28BF20F881
:1004F000023D48BF00F8012C704710B5203AC0F00B
:100500000B80B1E81850203AA0E81850B1E8185014
:10051000A0E81850BFF4F5AF5FEA027C24BFB1E851
:100520001850A0E8185044BF18C918C0BDE81040C2
:100530005FEA827C24BF51F8043B40F8043B08BFCB
:100540007047D20728BF31F8023B48BF11F8012B92
:1005500028BF20F8023B48BF00F8012B70477546C2
:1005600000F02CF8AE4605006946534620F007001F
:10057000854618B020B5FFF719FEBDE820404FF0C2
:1005800000064FF000074FF000084FF0000B21F07D
:100590000701AC46ACE8C009ACE8C009ACE8C0094A
:1005A000ACE8C0098D46704710B50446AFF3008033
:1005B0002046BDE81040FFF7E5BD00000048704749
:1005C0001C120020FEE70000014800F097B8000070
:1005D000AC010020014800F091B80000F0010020BB
:1005E000014800F08BB800002401002030B590F8DD
:1005F00040500124AC40C56B6C6004686360436884
:10060000102B036803D099600068C26030BD9A6007
:100610000068C16030BD704772B6FEE710B590F853
:1006200021100022022905D00421816380F82020B6
:10063000012010BD01680B6823F00E030B600168F8
:100640000B6823F001030B6090F84030C46B01216C
:1006500001FA03F3636080F8211080F8202010462F
:1006600010BD000010B590F821100024022903D01D
:100670000421816301243DE001680A6822F00E0232
:100680000A6001680A6822F001020A601A4A0168D9
:10069000914201D1012121E0174A1432914201D146
:1006A00010211BE0144A2832914201D1891515E02E
:1006B000114A3C32914201D189140FE00E4A503266
:1006C000914202D14FF4803108E00B4A64329142EA
:1006D00002D14FF4801101E04FF08071064A083AD0
:1006E0005160012180F82110002180F82010416B19
:1006F00001B18847204610BD080002402DE9F05F97
:10070000C16B0C6801680B68D0F840C0042202FA83
:100710000CF2494DDFF824A1494E4A4FDFF828B1C9
:10072000DFF828E122422CD05A072AD50A6892061F
:1007300003D40A6822F004020A600168A94201D1C8
:10074000042219E0514501D1402215E0B14202D105
:100750004FF4806210E0B94202D14FF480420BE0C6
:10076000594502D14FF4802206E0714502D14FF481
:10077000800201E04FF080622F4908394A60C16A67
:100780003BE04FF0020808FA0CF818EA040F4FF0AB
:1007900000094FF0010235D05FEA837832D50B684B
:1007A0009B0605D40B6823F00A030B6080F8212018
:1007B0000168A94201D1022219E0514501D120224C
:1007C00015E0B14202D14FF4007210E0B94202D1FB
:1007D0004FF400520BE0594502D14FF4003206E0CD
:1007E000714502D14FF4001201E04FF0007212493E
:1007F00008394A6080F82090816A00291AD0BDE843
:10080000F05F0847082505FA0CF5254212D01B07B2
:1008100010D50B6823F00E030B6090F84010C36BEB
:1008200002FA01F15960826380F8212080F820905B
:10083000016BE2E7BDE8F09F080002401C000240A7
:100840003000024044000240580002406C00024068
:1008500030B528B308C8134914221944B1FBF2F18A
:100860008900C16310498163022141771A6843F608
:10087000F0718A43D0E900142143D0E902452C43AA
:10088000214304692143446921438469214311437D
:10089000196000214163012242770177084630BD8B
:1008A000012030BDF8FFFDBF0000024070B50446D6
:1008B00090F82000002501280CD0012084F82000A9
:1008C00094F821600020012E06D084F82000022533
:1008D000284670BD022070BD022684F82160A06306
:1008E0002068066826F0010606602046FFF77EFEB7
:1008F000E06A00282068016802D041F00E0106E09D
:1009000021F0040101602068016841F00A010160E2
:100910002068016841F001010160D9E72DE9F84F35
:10092000DFF89C91002409F1040A0AF1040B234624
:100930000F270BF1040EBBE00125A5402A40AA4277
:1009400076D1DFF880C14E68A6EB0C0866452BD047
:100950000DDC032E34D005DC36B3012E19D0022E67
:100960002FD11BE0112E16D0122E2AD119E0B8F586
:10097000881F19D006DCB8F5803F15D0B8F5801F68
:100980001FD111E0B8F5001F0ED0B8F5041F18D123
:100990000AE0CB6815E0CB681B1D12E0CB6808337A
:1009A0000FE0CB680C330CE08B682BB1012B4FF0C0
:1009B000080303D0456104E0042302E0056100E080
:1009C0000023FF2A01D8064601E000F104064FEAA1
:1009D000840501D9A5F12005D6F8008007FA05FCA9
:1009E00028EA0C0803FA05F548EA0508C6F800806D
:1009F0004D68ED005BD5344DAE6946F00106AE6141
:100A0000AD6924F0030605F0010500952F4D06EBB6
:100A1000050CDCF80850A607360F07FA06F825EA99
:100A20000805DFF8AC80404503D14FF0000810E026
:100A30003DE0DFF8A080404502D14FF0010808E01A
:100A4000DFF89480404502D14FF0020801E04FF0FA
:100A5000030808FA06F848EA0508CCF808804D684B
:100A6000D9F80060ED034D4601D5164300E09643EA
:100A70002E604D68DAF80060AD03554601D5164387
:100A800000E096432E604D68DBF80060ED025D46A5
:100A900001D5164300E096432E604D68DEF80060F5
:100AA000AD02754601D5164300E096432E60641CE6
:100AB0000A6832FA04F57FF43FAFBDE8F88F000012
:100AC000000401400000111000100240000001402D
:100AD00000080140000C0140001001400AB1016112
:100AE00070470904FBE70000014880687047000078
:100AF0002800002002488168027811448160704714
:100B000028000020074810B5016841F0100101607D
:100B1000032000F075F80F2000F006F800F024F82C
:100B2000002010BD0020024070B50D4D04464FF46A
:100B30007A712878B1FBF0F00A490968B1FBF0F04E
:100B400000F087FD48B9102C07D200222146501E24
:100B500000F036F800206C6070BD012070BD000010
:100B600028000020340000200C4808B5816941F0BD
:100B700001018161816901F001010091C16941F0C8
:100B80008051C161C06900F0805000900448416804
:100B900021F0E06141F00071416008BD00100240A9
:100BA00000000140002809DB00F01F0201219140F4
:100BB0004009800000F1E020C0F8001170470000FB
:100BC000F0B40E4B1B680C46C3F30223C3F10705B8
:100BD000042D00D90425191D072901D2002300E0A6
:100BE000DB1E012606FA05F1491E214099409E4070
:100BF000761E16403143F0BC02F016BD0CED00E04D
:100C0000064900F0070208684FF6FF03184040EA63
:100C10000220034A10430860704700000CED00E01A
:100C20000000FA05014901200862704700000E42E9
:100C300010B529A401461DCC86B08DE81D002AA060
:100C40002A4C006804900020012923D002293AD0C0
:100C500010291DD161682268D20119D5C1F38342E0
:100C6000C9031DF8020009D5616804AAC1F3404117
:100C7000515C1F4AB2FBF1F1484301E01D49484372
:100C80006168490204D440005FF00301B0FBF1F059
:100C900006B010BD226AC2F30121012903D19207D7
:100CA00001D5C803F4E7022905D1626A920702D58B
:100CB00049F64040ECE70329EAD121688903E7D5EA
:100CC0004FF22440E4E700F033F96168C1F3813169
:100CD000491C4900DAE70000020304050607080979
:100CE0000A0B0C0D0E0F1010010200000010024044
:100CF00000127A0000093D002DE9F843054600780E
:100D0000354CC00754D0E0690026C00008D4E06923
:100D100040F08050E061E069012600F080500090D2
:100D20002E480168C90512D40168804641F48071DB
:100D30000160FFF7D9FE074605E000BFFFF7D4FECC
:100D4000C01B642823D8D8F80000C005F6D5206A57
:100D500010F4407021D0A98801F4407181421CD068
:100D6000206A1F49012220F440700A6000220A60B4
:100D70002062C00711D0FFF7B7FE074641F288385E
:100D800008E000BFFFF7B0FEC11B414502D90320B8
:100D9000BDE8F883206A8007F4D5206A696820F4EA
:100DA0004070084320621EB1E06920F08050E0618D
:100DB0002878800705D56068A96820F4404008437A
:100DC00060602878C00605D56068E96820F4800076
:100DD000084360600020DBE7001002400070004024
:100DE000400442422DE9F0470F46050061D0434ED2
:100DF000306800F00700B84209D2306820F00700E0
:100E000038433060306800F00700B84251D128689C
:100E10003B4C810712D5400703D5606840F4E06081
:100E200060602878000703D5606840F46050606017
:100E30006068A96820F0F000084360602878C00767
:100E400028D06868012810D02168022810D08907AE
:100E500000292EDA616821F0030101436160FFF788
:100E600043FE804641F288390DE021688903EFE7AF
:100E70008901EDE7FFF738FEA0EB0801494502D9EB
:100E80000320BDE8F0876068696800F00C00B0EBF3
:100E9000810FEFD1306800F00700B8420BD93068FD
:100EA00020F0070038433060306800F00700B84297
:100EB00001D00120E5E72878400705D56068E9689A
:100EC00020F4E060084360602878000706D5606879
:100ED000296920F4605040EAC100606000F038F8F1
:100EE0006168084AC1F30311515CC84006490860B3
:100EF00006480068FFF718FE0020C2E70020024005
:100F000000100240203D0008340000202C0000208A
:100F10000448054900684968044AC1F30221515C4C
:100F2000C84070473400002000100240303D0008E7
:100F30000448054900684968044AC1F3C221515C6C
:100F4000C84070473400002000100240303D0008C7
:100F500012A185B00FC98DE80F0014A0144A0068D3
:100F600004905168134801F00C03042B10D0082B97
:100F70000ED1C1F38343C9031DF803000AD551689C
:100F800004AAC1F34041515C0A4A5043B0FBF1F05E
:100F900005B0704708494843FAE70000020304051A
:100FA000060708090A0B0C0D0E0F101001020000B5
:100FB0000010024000127A0000093D002DE9F84FB0
:100FC000040070D02078C04DC00749D06868C0F3D5
:100FD0008100012807D06868C0F38100022809D188
:100FE0006868C00306D52868800339D56068002882
:100FF000E7D035E06068B0F5803F0BD010B1B0F5B8
:10100000A02F11D0286820F480302860286820F4B0
:10101000802002E0286840F480302860606890B149
:10102000FFF762FD06460AE0286840F48020286049
:10103000F0E700BFFFF758FD801B642873D82868CD
:101040008003F7D50CE0FFF74FFD064605E000BF33
:10105000FFF74AFD801B6428F0D828688003F7D486
:1010600020789A4E80074FF001094FF0000839D5DB
:10107000686810F00C0F07D06868C0F38100022880
:1010800009D16868C00306D42868800714D5206990
:10109000012808D110E02069B0B1C6F80090FFF730
:1010A00023FD074605E00AE1FFF71EFDC01B0228ED
:1010B000C4D828688007F7D52868616920F0F8004F
:1010C00040EAC10028600DE0C6F80080FFF70CFD83
:1010D000074604E0FFF708FDC01B022823D8286854
:1010E0008007F7D4207800072CD57948A169D9B1B9
:1010F000C0F80090FFF7F8FC074604E0FFF7F4FCA7
:10110000C01B02280FD8686A8007F7D571484FF4D2
:10111000FA510068B0FBF1F0009000BF0098411E4A
:101120000091FAD20EE080E0C0F80080FFF7DCFC0E
:10113000074604E0FFF7D8FCC01B022875D8686A90
:101140008007F7D42078400760D5E8690027C00001
:1011500008D4E86940F08050E861E869012700F0B0
:10116000805000905C480168C90513D4016883462B
:1011700041F480710160FFF7B7FC824606E000BFD2
:10118000FFF7B2FCA0EB0A0064284ED8DBF80000A1
:10119000C005F5D5E06801280AD008B1052813D0AC
:1011A000286A20F001002862286A20F0040002E08A
:1011B000286A40F001002862E06841F2883B98B15B
:1011C000FFF792FC82460BE0286A40F00400286298
:1011D000EEE700BFFFF788FCA0EB0A0159455AD89B
:1011E000286A8007F6D50CE0FFF77EFC824605E012
:1011F000FFF77AFCA0EB0A0159454CD8286A800712
:10120000F6D41FB1E86920F08050E861E06988B346
:101210006968C1F38101022944D00228C6F86080C0
:1012200004D0FFF761FC044638E034E0FFF75CFCD3
:10123000074604E0FFF758FCC01B02282BD828689B
:101240008001F7D4206AB0F5803F05D16868A168B5
:1012500020F4003008436860D4E908010843696855
:1012600021F4741108436860C6F86090FFF73CFCF5
:10127000044606E025E000BFFFF736FC001B02280D
:1012800009D828688001F7D51BE000BFFFF72CFCC8
:10129000001B022802D90320BDE8F88F28688001CE
:1012A000F4D40EE00128F7D06868226A00F4803197
:1012B000914204D1616A00F47010884201D001208B
:1012C000EAE70020E8E70000001002400000424288
:1012D000800442423400002000700040024850F870
:1012E000210080B270470000006C0040024800EB13
:1012F000810091B201607047006C00402DE9F04719
:1013000091460C465FEA00084AD084B3D8F8000042
:101310004068400744D4404601F024FC4FF4616229
:101320000546B0FBF2F1B0FBF2F302FB13503C2395
:10133000B0FBF3F0B5FBF2F6607002FB1650B0FBA9
:10134000F3F203FB1200A070182931D31820B1FB6F
:10135000F0F7B1FBF0F200FB12102070404601F0F4
:10136000FAFB411C04D0A84202D9461B02E017E058
:101370004FF0FF36A7EB071000EB4000C0EB00106A
:1013800005EBC0152946404601F03BFC40B9701CF6
:1013900001D0711900E03146404601F01EFC10B149
:1013A0000120BDE8F0873946404601F048FB00E0E7
:1013B0002170B9F1000F0BD0207801F035FB2070BF
:1013C000607801F031FB6070A07801F02DFBA07017
:1013D0000020E6E770B5040003D0607C002610B161
:1013E00005E0012070BD2674204600F043F802207D
:1013F0006074204600F010F9042578BB204601F007
:1014000075FB58BB2068416821F007014160A06866
:1014100020B11748016821F0010101601448001F44
:101420000168A26821F46071114301606068411C89
:1014300004D10120FFF7FCFB80B1401E21688A68BF
:1014400022F00F0242EA10428A602168CA6860F303
:101450000F02CA60204601F063FB08B16574C0E763
:10146000E67301206073A0736074002070BD0000FB
:10147000306C004008B50068084988420DD1FFF77C
:10148000D1FB0748C16941F00061C161C0690549EC
:1014900000F0006000900120086008BD00280040B6
:1014A000001002403C0442422DE9F0410D46040088
:1014B0003BD0C5B3207C01283AD04FF0010884F816
:1014C000108002206074E87872B301F0A4FAE0732F
:1014D000687801F0A0FA6073A87801F09CFAA07314
:1014E000C2B2617BE07B01F04DFB20732870204687
:1014F00001F038FB4FF46161B0FBF1F100251829D0
:101500002DD91822B1FBF2F1A1EB011101EB410140
:10151000C1EB011100EBC1163146204601F071FB11
:101520000427C8B90BE000E004E00120BDE8F08129
:101530000220FBE7E07368786073A878CFE7204665
:1015400001F009FB411C0AD0B04208D2064901440F
:10155000204601F042FB10B167742574E5E784F87A
:10156000118025740020E1E7805101002DE9F04150
:101570000D46040024D01DB3207C012823D04FF059
:10158000010884F81080022060742878EAB101F024
:1015900042FA4FF4616100FB01F6687801F03BFA12
:1015A000C0EB001006EB8006A87801F034FA35187D
:1015B0002946204601F025FB0026042710BB0FE03A
:1015C0000120BDE8F0810220FBE74FF46161484350
:1015D0006978C1EB011100EB8100A9784518E7E7B4
:1015E0002068416821F005014160204601F0B3FA0E
:1015F000411C0AD0A84208D206490144204601F005
:10160000ECFA10B167742674DAE784F81180267456
:101610000020D6E78051010070B504000AD0206890
:10162000416821F008014160FFF75EFA05464FF47A
:101630007A7608E0012070BDFFF756FA401BB042F1
:1016400001D9032070BD206840680007F4D5002050
:1016500070BD10B5401EB0F1807F01D3012010BDD8
:101660004FF0E02460610F21601701F0DDFF0020E2
:10167000A06107202061002010BD7047704710B5A1
:1016800090F83C20012A22D0012280F83C20CA6830
:101690008C6822F4407222434C6822F48062224318
:1016A0000C6822F4006222430C6922F48052224327
:1016B0004C6922F400522243C969002322F480427B
:1016C0000A4301684A6480F83C30002010BD0220C3
:1016D00010BD000070B590F83C20012A23D00124F1
:1016E00080F83C40022280F83D2003685A689D68DB
:1016F00022F070060A6832435A600C4B02689A4224
:1017000005D0B2F1804F02D0094B9A4204D149680A
:1017100025F080031943916080F83D40002180F856
:101720003C10084670BD022070BD0000002C014036
:101730000004004010B5040003D094F83D0010B13F
:1017400007E0012010BD002084F83C00204600F096
:101750001FF8022084F83D00211D206801F0B6FA30
:10176000012084F8460084F83E0084F83F0084F8A5
:10177000400084F8410084F8420084F8430084F873
:10178000440084F8450084F83D00002010BD0000AE
:1017900038B505460068264A264990420ED1886928
:1017A00040F4006088618869002200F400600090C5
:1017B00011461920FFF704FA192013E0B0F1804F09
:1017C00014D01D4A904232D1C86940F00200C8616D
:1017D000C869002200F00200009011461D20FFF7AA
:1017E000EFF91D20BDE83840FFF7DCB9C86940F0CB
:1017F0000100C861C869124C00F0010000900F4858
:1018000020601020606000208021C4E902014900AE
:101810002161890061612021C4E906102046FFF79B
:1018200017F808B1FEF7F8FEAC622C63656238BDAC
:10183000002C0140001002400004004080000240E3
:101840002401002090F83D10012901D001207047AB
:10185000022180F83D100168CA6842F00102CA60A6
:1018600000680A49884205D0B0F1804F02D008498B
:10187000884204D1816801F00701062903D001687C
:1018800041F001010160002070470000002C014080
:10189000000400400168CA6822F00102CA600168C1
:1018A0000A6A41F211131A4207D10A6A9B101A42BE
:1018B00003D10A6822F001020A60012180F83D107C
:1018C0000020704770B5044690F83C00012817D0FE
:1018D000012584F83C50022084F83D00206882688D
:1018E00022F0770222F47F4282600868502830D0CC
:1018F0000DDC20284DD005DC98B310283BD148E002
:10190000022070BD302844D0402834D139E060280E
:1019100028D0702806D0B0F5805F2CD0B0F5005FDD
:1019200029D10AE0CB68D1E90121206801F07EFAD3
:101930002068816841F0770109E0CB68D1E9012195
:10194000206801F073FA2068816841F48041816069
:1019500011E0CA684968206801F01CFB502120682A
:1019600007E016E0CA684968206801F024FB60219E
:10197000206801F065FA84F83D50002084F83C00AE
:1019800070BDCA684968206801F004FB40212068E6
:10199000EFE7226801461046EBE77047704770B5E5
:1019A0000446006801694FF00005C943890715D452
:1019B000C168C943890711D4E91E0161012020775C
:1019C000206880698007204602D0FFF7E7FF04E027
:1019D00000F014F9204600F0D1F92577206801695C
:1019E000C943490717D4C168C943490713D46FF0E5
:1019F00004010161022020772068806910F4407F93
:101A0000204602D0FFF7CAFF04E000F0F7F82046B6
:101A100000F0B4F9257720680169C943090716D495
:101A2000C168C943090712D46FF00801016104209D
:101A300020772068C0698007204602D0FFF7AEFFFC
:101A400004E000F0DBF8204600F098F925772068E4
:101A50000169C943C90617D4C168C943C90613D46B
:101A60006FF010010161082020772068C06910F430
:101A7000407F204602D0FFF791FF04E000F0BEF85F
:101A8000204600F07BF9257720680169C943C90722
:101A900008D1C168C943C90704D1891E0161204624
:101AA00000F00EFB20680169C943090609D4C1682A
:101AB000C943090605D46FF0800101612046FFF794
:101AC000DCFD20680169C943490609D4C168C943DE
:101AD000490605D46FF040010161204600F04EFB3D
:101AE00020680169C94389060BD4C168C9438906C6
:101AF00007D46FF0200101612046BDE87040FFF778
:101B0000BDBD70BD10B586B000210091019102915C
:101B10000391214C0368214A02212148A34209D1A3
:101B2000936943F004039361926902F00402049202
:101B300082150EE0B3F1804F13D01A4CA3420ED1A0
:101B4000936943F004039361926902F004020492E2
:101B50004022CDE9002103916946FEF7DFFE06B081
:101B600010BD906940F0080090619069039100F009
:101B7000080004900820CDE9000169460A48FEF7F4
:101B8000CDFE0A48416821F4407141F0E06141F422
:101B900080714160E3E70000002C0140001002402A
:101BA0000008014000040040000C0140000001401A
:101BB00010B5044690F83C0001280AD0012084F8B2
:101BC0003C0042B1042A0AD0082A0CD00C2A11D1B8
:101BD0000DE0022010BD206801F03AF90AE020680B
:101BE00001F05EF906E0206801F086F902E0206865
:101BF00001F0AEF9002084F83C0010BD704710B52C
:101C0000040003D094F83D0010B107E0012010BD9E
:101C1000002084F83C00204600F01EF8022084F8E2
:101C20003D00211D206801F051F8012084F8460094
:101C300084F83E0084F83F0084F8400084F84100B6
:101C400084F8420084F8430084F8440084F8450096
:101C500084F83D00002010BD704770B5044690F830
:101C60003C000D4601280AD0012084F83C0042B116
:101C7000042A18D0082A2AD00C2A4DD139E0022093
:101C800070BD206801F0E4F82068816941F0080126
:101C900081612068816921F0040181612068816986
:101CA0002A69114311E0206801F0FAF8206881697F
:101CB00041F4006181612068816921F48061816162
:101CC000206881692A6941EA0221816124E0206853
:101CD00001F012F92068C16941F00801C161206872
:101CE000C16921F00401C1612068C1692A691143F9
:101CF00011E0206801F02CF92068C16941F400610D
:101D0000C1612068C16921F48061C1612068C16935
:101D10002A6941EA0221C161002084F83C0070BDBB
:101D200010B5040003D094F83D0010B107E0012085
:101D300010BD002084F83C00204600F01EF8022070
:101D400084F83D00211D206800F0C0FF012084F8C8
:101D5000460084F83E0084F83F0084F8400084F890
:101D6000410084F8420084F8430084F8440084F879
:101D7000450084F83D00002010BD70470421014853
:101D800000F042B9940000207047000010B50446EE
:101D9000022249B104290ED0082913D094F8410039
:101DA000012816D0012010BD94F83E000128F9D179
:101DB00084F83E200FE094F83F000128F2D184F827
:101DC0003F2008E094F840000128EBD184F840203F
:101DD00001E084F841200122206800F0A5FF0E49AF
:101DE0002068884203D1426C42F400424264206879
:101DF000884205D0B0F1804F02D00849884204D112
:101E0000816801F00701062903D0016841F0010152
:101E10000160002010BD0000002C014000040040C3
:101E20002DE9F04117460D0004460CD0042D11D0C9
:101E3000082D16D094F84100022819D094F84100DA
:101E4000012818D097E094F83E00022810D094F8AA
:101E50003E00F5E794F83F00022809D094F83F00CF
:101E6000EEE794F84000022802D094F84000E7E73B
:101E70000220BDE8F0810FB9002B7CD14149424ED0
:101E8000424A022045B1042D16D0082D24D084F8F2
:101E900041000C2D3AD161E084F83E00606A816215
:101EA000606A3946C662606A02632268606A3432D8
:101EB000FEF7FCFCF0BB1FE084F83F00A06A8162E3
:101EC000A06A3946C662A06A02632268A06A3832F4
:101ED000FEF7ECFC70BB14E084F84000E06A81621D
:101EE000E06A3946C662E06A02632268E06A3C3210
:101EF000FEF7DCFCF0B92CE02068C16841F4007109
:101F000003E02068C16841F48061C1600122294674
:101F1000206800F009FF1E492068884203D1426C06
:101F200042F4004242642068884207D0B0F1804FFA
:101F300004D000E01FE01749884204D1816801F015
:101F40000701062903D0016841F00101016000206A
:101F50008FE72068C16841F40061D6E7206B816299
:101F6000206B3946C662206B02632268206B4032C8
:101F7000FEF79CFC08B101207BE72068C16841F4B2
:101F80008051C2E7432D0008A12D0008D92D00087B
:101F9000002C01400004004030B504460D460068A6
:101FA000002200F0C1FE174B41F2111120688A1087
:101FB000984209D1036A0B4206D1036A134203D146
:101FC000436C23F4004343642068036A0B4206D148
:101FD000016A114203D1016821F001010160012071
:101FE0003DB1042D08D0082D09D084F8410000200F
:101FF00030BD84F83E00FAE784F83F00F7E784F844
:102000004000F4E7002C014070B5044600680D0064
:1020100006D0042D0AD0082D3AD00C2D0DD13DE06C
:10202000C16821F40071C160606A04E0C16821F4F4
:102030008061C160A06AFEF715FB00222946206876
:1020400000F072FE1D4B41F2111120688A10984277
:1020500009D1036A0B4206D1036A134203D1436CD0
:1020600023F4004343642068036A0B4206D1016AEB
:10207000114203D1016821F00101016001209DB1ED
:10208000042D14D0082D15D084F84100002070BD17
:10209000C16821F40061C160E06ACCE7C16821F445
:1020A0008051C160206BC6E784F83E00EEE784F8FB
:1020B0003F00EBE784F84000E8E70000002C014017
:1020C00010B50368274800210268274893422DD1A4
:1020D0004289521C94B201224481B4F57A7F01D323
:1020E0004181C270214C247804B3012C04D0022C0D
:1020F0000BD0032C1AD111E08489641CA4B2848112
:10210000322C13D38181027110E0C489641CA4B203
:10211000C481642C0AD3C181427107E0048A641C23
:10212000A4B20482642C01D301828271104A126825
:10213000934216D102890F4B521C92B202811B8826
:102140009A420ED30181012251030B48FEF7C6FCCF
:102150000748FFF79FFBBDE8104000210448FFF748
:102160001BBF10BD4C000020140000200200002006
:10217000DC00002000000020000C01407047704788
:1021800010B504460068416994F83D20C1F3C011C0
:10219000212A0BD151B1416921F080014161606B6D
:1021A00008B1FEF73BFA204601F029F820684169A2
:1021B00094F83E20C1F38011222A0BD151B141691C
:1021C00021F040014161A06B08B1FEF727FA2046DB
:1021D00000F0FDFF002010BD70470000F8B5026858
:1021E00004461068D168536910F00F0F4FF00005D6
:1021F00053D003F0010601F4907737435FD0C20754
:1022000005D0CA0503D5226C42F0010222644207C0
:1022100005D5DA0703D0226C42F00202226482075D
:1022200005D5DA0703D0226C42F0040222640207CB
:1022300007D501F02002324303D0226C42F008029D
:102240002264226C002A34D0800604D5880602D588
:10225000204600F0DDFF20684069216CC0F380104B
:10226000090700D430B3204600F0B1FF206841696F
:1022700049061BD5416921F040014161A06BA8B11D
:1022800058494163A06BFEF7EDF9002811D0A06B0F
:10229000416B01B0BDE8F040084783060FD58B06BF
:1022A0000DD52046BDE8F84000F0B2BF2046FFF74C
:1022B00093FFF8BD2046FFF78FFF2564F8BD266B1E
:1022C0002023012E52D1C60650D5CE064ED5106819
:1022D00050680090506940062AD5A16B0868406894
:1022E0000004000CEAD0A68D8642E7D9E085886913
:1022F000202818D0D06820F48070D0602068416910
:1023000021F0010141612068416921F040014161F2
:1023100084F83E3025632068C16821F01001C16057
:10232000A06BFEF77BF9A08DE18D401A81B219E018
:10233000A08DE18D401A81B2E08D0028BED0002929
:10234000BCD0D06820F49070D0602068426922F040
:102350000102426184F83E3025632068C26822F0A1
:102360001002C2602046FFF70AFFF8BD05062BD514
:102370000D0629D594F83D002128F6D1A068B0F5C6
:10238000805F01D12069B0B1206A411C21622168BF
:1023900000784860E08C401E0004000CE084E4D12A
:1023A0002068C16821F08001C1602068C16841F0E7
:1023B0004001C160F8BD206A0088C0F30800506089
:1023C000206A801C2062E5E74006F3D54806F1D577
:1023D000D168204621F04001D16084F83D3000F002
:1023E000FFF8F8BDC930000870B5040004D094F8B7
:1023F0003D00002510B106E0012070BD84F83C507E
:10240000204600F023F8242084F83D002068C168AD
:1024100021F40051C160204600F056FF2068016998
:1024200021F4904101612068416921F02A01416154
:102430002068C16841F40051C1602564202084F8FF
:102440003D0084F83E00002070BD00002DE9F04101
:1024500086B0002406460094019402940394006818
:102460002E49884256D12E48816941F480418161CC
:10247000816901F480410491816941F00401816125
:102480008069284D00F0040004904FF40070009023
:10249000022001900320039069462846FEF73EFA89
:1024A0002815CDE90004694628460294FEF736FA5D
:1024B0001E4D1D484FF0800801C51020A5E81101F0
:1024C000070245F8104919486C61C5E90647FEF74F
:1024D000BFF908B1FEF7A0F875636E62134D12489C
:1024E00044351430C5E90004C5E902482C616C612B
:1024F000C5E906472846FEF7ABF908B1FEF78CF8A8
:10250000B5630022114625206E62FEF759FB252097
:10251000FEF748FB06B0BDE8F0810000003801403E
:10252000001002400008014044000240AC010020BD
:1025300090F83E30202B0ED159B152B190F83C307A
:10254000012B08D0012380F83C300023036300F006
:1025500017BF012070470220704770477047000086
:1025600070B5044690F83D00202830D169B362B3BD
:1025700094F83C0001282AD0012084F83C00216214
:10258000A284E28400252564212084F83D00636B49
:1025900010489862636B1048D862636B0F481863E9
:1025A000606B134645632668606B321DFEF77EF94B
:1025B00021686FF04000086084F83C502068416951
:1025C00041F080014161002070BD012070BD0220FA
:1025D00070BD000097310008C5310008D9300008EF
:1025E00070477047FEE700002DE9F04789461D4619
:1025F0004FF4B471B0FBF1F3DDE9087601FB130889
:10260000104601F0ADFA1F4901F0BEFA01F088FA58
:102610000446C9F16400604301F0A2FA1A4901F0CE
:10262000BDF901F07DFA3C21B8FBF1FCB8FBF1F2F9
:1026300001FB1C83A4EB000C0CFB03FCBCFBF1F1C5
:10264000052A1AD2DFE802F003070B111400014437
:102650002C60396006E0611A29603C6002E0286065
:1026600008443C603060BDE8F0872860601A01E0F3
:102670000144296038603460F5E72C603860601AE6
:10268000F0E70000333323400000C842114808B58A
:10269000416941F0010141614069002200F00100FF
:1026A000009011460E20FEF78BFA0E20FEF77AFA04
:1026B000002211460F20FEF783FA0F20FEF772FA70
:1026C000002211461120FEF77BFABDE808401120D8
:1026D000FEF768BA0010024030B585B000200090C7
:1026E0000190029003901A48816941F010018161C4
:1026F000816901F010010491816941F0200181613B
:10270000816901F020010491816941F00401816136
:10271000816901F004010491816941F0080181613E
:1027200080690C4D00F008004FF4705404900022B2
:1027300021462846FEF7D2F9012002210094CDE976
:102740000101039169462846FEF7E8F805B030BD5F
:1027500000100240000C01407CB500241F48019489
:102760001D4900940160611EC0E90114FEF732FEAC
:1027700008B1FDF751FFFEF755FA01211748FEF7A2
:10278000ADFD40F22175A84225D08DF804408DF8AA
:1027900005408DF80640012201A91048FEF7E6FE2B
:1027A00008B1FDF739FF01208DF800008DF8010018
:1027B0008DF8020002468DF8034069460748FEF78F
:1027C00073FE08B1FDF728FFFEF72CFA2A46012117
:1027D0000248FEF78BFD7CBD002800403800002039
:1027E00010B596B000240F94109411941294139481
:1027F0001C2108A81494FDF7A0FD20216846FDF7D0
:102800009CFD28482649016040F2CF21C0E901140F
:102810006321C0E9031444618461FEF78BFF08B1B2
:10282000FDF7FAFE4FF480500F900FA91D48FFF7F7
:1028300049F808B1FDF7F0FE1A48FFF7E0F908B1D2
:10284000FDF7EAFE139413A916481494FEF742FF0D
:1028500008B1FDF7E1FE089409940A940B940C94D6
:102860000D94002208A90F480E94FFF7A1F908B1B2
:10287000FDF7D2FE00944FF40050CDE904400294DD
:1028800001940394694607480794FEF7F8FE08B1DF
:10289000FDF7C2FE0348FFF735F916B010BD000082
:1028A000002C01404C00002010B58EB0002407948D
:1028B000089409940A940B941C2168460C94FDF723
:1028C0003CFD1D484FF08041C0E900145921C0E98A
:1028D000024104618461FEF72DFF08B1FDF79CFE03
:1028E0004FF48050079007A91348FEF7EBFF08B19B
:1028F000FDF792FE1048FFF713FA08B1FDF78CFEC2
:102900000B940BA90C480C94FEF7E4FE08B1FDF7FC
:1029100083FE6020CDE90004029404226946064843
:102920000494FFF79AF908B1FDF776FE0248FFF725
:10293000E9F80EB010BD00009400002010B58EB074
:1029400000240794089409940A940B941C21684667
:102950000C94FDF7F2FC1F481D49016040F2CF21A5
:10296000C0E90114C721C0E903148461FEF7E2FE47
:1029700008B1FDF751FE4FF48050079007A91548A4
:10298000FEF7A0FF08B1FDF747FE1248FFF7C8F9B0
:1029900008B1FDF741FE0B940BA90E480C94FEF70D
:1029A00099FE08B1FDF738FE602000906320CDE964
:1029B00001040022694607480494FFF74EF908B164
:1029C000FDF72AFE0348FFF79DF80EB010BD00008A
:1029D00000040040DC0000200C4810B50A490160EA
:1029E0004FF4E1314160002181600C22C160C0E9F7
:1029F00004128161C161FFF7F7FC002803D0BDE834
:102A00001040FDF709BE10BD0038014068010020EC
:102A1000FEE7FEE77047010901EB810100F00F00BE
:102A200000EB4100C0B27047002102E00A38C0B29A
:102A3000491C0A28FAD2090740EA116070472DE9BB
:102A4000F04104460025C07B627BA37B42E0012A63
:102A500016D0032A14D0052A12D0072A10D0082A2B
:102A60000ED00A2A0CD00C2A0AD0042A10D0062A2A
:102A70000ED0092A0CD00B2A0AD0022A0DD028E049
:102A80001F2B0CD30C2A05D101221346401C20E039
:102A90001E2B04D30123521C1BE01C2B02D203F17A
:102AA000010316E011D183B29E0710D16426B3FB57
:102AB000F6F706FB173636B94FF4C876B3FBF6F7D0
:102AC00006FB17331BB91D2303E01D2B01D1032285
:102AD00001236D1C8D42BAD3D1B2E0736173DAB2B7
:102AE000A27300F04FF82073BDE8F08170B5044682
:102AF000FDF7FAFF05464FF47A7606E0FDF7F4FF9E
:102B0000401BB04201D9032070BD20684068800698
:102B1000F4D52068416841F010014160002070BD8B
:102B200070B504460068416821F010014160FDF76E
:102B3000DBFF05464FF47A7607E000BFFDF7D4FFD0
:102B4000401BB04201D9032070BD20684068800658
:102B5000F4D5002070BD0168086A496A89B241EA6B
:102B600000407047006881698AB2C1698BB281698F
:102B700089B28A4203D0C06961F31F40704743EABB
:102B800002407047F0B56424C1EBC1030927A500DA
:102B9000072603EB01130329B3FBF7F100F5FA60F5
:102BA000114401440AD2401EB0FBF4F201EB900143
:102BB000B0FBF5F0891A0844001D08E0B0FBF4F200
:102BC00001EB9001B0FBF5F0891A0844801CB0FBC2
:102BD000F6F106FB1100C0B2F0BD70B50D46064619
:102BE0000024FFF783FF48B93168280C0862316878
:102BF000A8B248623046FFF793FF00B10124204697
:102C000070BD70B50D4606460024FFF76FFF48B94A
:102C10003168280C88613168A8B2C8613046FFF776
:102C20007FFF00B10124204670BD7047FDF762BFF1
:102C300070B594B028216846FDF77FFB14210AA8DF
:102C4000FDF77BFB002501240F95119505201295BA
:102C50000090CDE9025410954FF480300190022687
:102C60000494CDE907604FF4E01009906846FEF740
:102C7000A5F908B172B6FEE70F20CDE90A064FF4B8
:102C80008060CDE90C5002210AA80E95FEF7AAF843
:102C900008B172B6FEE74FF48070CDE90F400FA87F
:102CA000FEF72AF8002801D072B6FEE714B070BD16
:102CB000704700000148FEF772BE00004C00002083
:102CC0000148FEF76CBE0000DC00002070B5026811
:102CD000134B144C4FF08046984203D0B04201D0C1
:102CE000A04203D122F070054A682A43984203D0DB
:102CF000B04201D0A04203D122F44074CA682243FA
:102D00004C6922F08002224302608A68C2620A682B
:102D10008262984201D1096901630121416170BD5C
:102D2000002C01400004004010B501F01F030121F8
:102D3000046A99408C430462016A9A40114301621B
:102D400010BD10B5446A0121626A824205D1217723
:102D50008069F8B984F83E101CE0A26A824206D16C
:102D6000022222778069A8B984F83F1012E0E26A53
:102D7000824206D104222277806958B984F8401033
:102D800008E0226B824205D108222277806908B9C7
:102D900084F841102046FEF7F1FF0020207710BD97
:102DA00010B5446A616A814201D101200DE0A16A37
:102DB000814201D1022008E0E16A814201D1042070
:102DC00003E0216B814201D1082020772046FEF7E5
:102DD000DBFF0020207710BD10B5446A0121626A34
:102DE000824203D1217784F83E1019E0A26A824220
:102DF00004D10220207784F83F1011E0E26A824279
:102E000004D10420207784F8401009E0226B82422C
:102E100004D10820207784F8411001E084F83D10A7
:102E20002046FEF7BAFD0020207710BD10B584685B
:102E300042EA032224F47F440A432243826010BD05
:102E4000826822F070020A4342F0070181607047F5
:102E500030B5026A22F001020262026A43688469A4
:102E600024F073050C682C4322F002058A682A437B
:102E70000A4DA8420BD122F00805CA6823F440731A
:102E80002A434D6922F004021D438B692B434360A2
:102E9000846149684163026230BD0000002C01403A
:102EA00030B5026A22F010020262026A4368846945
:102EB0000D6824F4E64444EA05248D6822F02002DB
:102EC00042EA05120B4DA8420ED1CD6822F08002D5
:102ED00042EA05124D6923F4406343EA85038D6994
:102EE00022F0400243EA85034360846149688163BC
:102EF000026230BD002C014030B5026A22F48072BB
:102F00000262036A4268C46923F4007324F0730503
:102F10000C682C438D6843EA05230C4DA8420ED162
:102F2000CD6823F4006343EA05234D6922F440523F
:102F300042EA05128D6923F4806342EA0512426079
:102F4000C4614968C163036230BD0000002C0140C8
:102F500030B5026A22F480520262046A4268C36990
:102F60000D6823F4E64343EA05238D6824F40054F6
:102F700044EA0534064DA84204D14D6922F480424A
:102F800042EA85124260C36149680164046230BD4F
:102F9000002C014010B5036A046A24F001040462A5
:102FA000846924F0F00444EA021423F00A020A437C
:102FB0008461026210BD10B5036A23F0100303623E
:102FC0008369046A23F4704343EA023224F0A003C5
:102FD00043EA01118261016210BD00002DE9F04752
:102FE00081460025344C9A4617464FF480600129EB
:102FF0001DD0002201462046FDF770FD4FF47A6691
:103000004FF400614FF48058042F05D0082F10D0E2
:10301000102F10D0202F2CD000222046FDF75EFD6F
:10302000002241462046FDF759FD35460CE00122BD
:10303000E0E700221EE001222046FDF74FFD0022BE
:1030400041462046FDF74AFD4FF40051B9F1000F0B
:1030500015D001222046FDF741FD184900200880C7
:103060001748FEF717FCBDE8F04700211448FEF7AB
:1030700093BF01222046FDF731FD0122E0E7002247
:103080002046FDF72BFD284600F06AFD514600F072
:103090007BFD00F045FD0B49088009496FF00100F8
:1030A000096808610648FEF7CDFBBDE8F04700213E
:1030B0000348FEF76BBE0000000C01401C0000201E
:1030C000DC0000200000002010B5406A0021C1850E
:1030D000C184FFF781F810BD70B5446A206840696B
:1030E00094F83D10C0F3C0100025212904D118B177
:1030F000E584204600F083F82068406994F83E108B
:10310000C0F38010222904D118B1E585204600F0D3
:103110005EF8206C40F0100020642046FFF75CF859
:1031200070BD10B50146406A0968096889061BD45C
:103130000021C1850168CA6822F48072CA600168F2
:103140004A6922F001024A6101684A6922F040029C
:103150004A61202180F83E10016B012904D10168E9
:10316000CA6822F01002CA60016B012902D0FFF781
:10317000F4F910BD818DFFF702F810BD10B5406A5B
:10318000016B012902D0FFF7E9F910BD818D4908D3
:10319000FEF7F5FF10BD10B50146406A09680968E1
:1031A00089060CD40021C18401684A6922F080029A
:1031B0004A610068C16841F04001C16010BDFFF77D
:1031C0000FFA10BD10B5406AFFF70BFA10BD016889
:1031D000CA6822F49072CA6001684A6922F001024A
:1031E0004A61016B012904D10168CA6822F010020A
:1031F000CA60202180F83E100021016370470168F9
:10320000CA6822F0C002CA60202180F83D107047D1
:1032100008B590F83E10222901D0022008BD82682E
:103220004FF480539A4201D1016921B1816A9A42D7
:103230001BD04AB10AE00268816A5268C2F30802F0
:103240000A80816A891C08E0026972B102685268CA
:1032500002F07F020A70816A491C8162C18D491E99
:103260000904090CC18503D019E002685268F1E72E
:103270000168CA6822F02002CA600168CA6822F4A4
:103280008072CA6001684A6922F001024A61202105
:1032900080F83E10016B012903D0FFF75EF9002092
:1032A00008BD002101630168CA6822F01002CA60EB
:1032B00001680A68D20602D50A6849680091818DC2
:1032C000FEF75DFFEBE7000070B50446006801699A
:1032D000E26821F44051114301612169A06808436B
:1032E000616908432168CA6841F20C639A4302434A
:1032F000CA6020684169A26921F4407111434161AB
:103300001E492068884202D1FDF712FE01E0FDF758
:10331000FFFD00EBC00101EB00126068642180003A
:10332000B2FBF0F3B3FBF1F36FF018067343B2FB9B
:10333000F0F5B2FBF0F605EB8305322303EB051540
:10334000B5FBF1F5B6FBF1F605F0F00505EB06155A
:10335000B2FBF0F6B2FBF0F0B0FBF1F06FF0180248
:10336000504306EB800003EB0010B0FBF1F0216846
:1033700000F00F002844886070BD00000038014054
:1033800038B58162828500251346044605642220F3
:1033900084F83E00A26B13489062A26B1248D06280
:1033A000A26B12481063A06B0A4645632168A06BAC
:1033B000091DFDF77BFA206801684168009184F8D7
:1033C0003C50C16841F48071C1602068416941F09E
:1033D000010141612068416941F0400141610020E3
:1033E00038BD0000233100087D310008D9300008C5
:1033F0000D4808B500680168C943C9060ED40168C4
:10340000406800900848FEF7BBFE08480068416825
:1034100007480278511A417001218170BDE80840C7
:103420000148FEF7DBBE000068010020F00100202B
:1034300014000020FEE710B50024002223461146A8
:10344000104600F043F8641CE4B2402CF5D3BDE80C
:10345000104000F0DDB8000030B585B000241D46F6
:1034600002940394049404AC03ABCDE9003402ABA2
:10347000FFF7BAF8144905EB450001EB00110020F5
:1034800001F5E171039A8240120601D5442200E061
:10349000162221F81020029A8240120601D54423F8
:1034A00000E0162301EB40021382049B83401B06BD
:1034B00001D5442300E01623401CC0B21384082821
:1034C000E0D305B030BD00009802002070B5144C68
:1034D00003EB430304EB0314002304F5E17400BF82
:1034E00001FA03F52D0601D5442500E0162524F840
:1034F000135000FA03F52D0601D5442600E01626E8
:1035000004EB43052E8202FA03F6360601D5442663
:1035100000E016265B1CDBB22E84082BE0D370BDC6
:10352000980200202DE9F0411D4616460F468046C0
:10353000002407E02346324639464046FFF78CFF19
:10354000641CE4B2AC42F5D3BDE8F04100F060B8D1
:10355000F0B5ADF5717D0D4606462C4C4FF47071FB
:103560006846FCF7EAFEA5EB85000201A5EB85079E
:10357000694605EB450502F54062012E04D0022E96
:1035800023D100200E462DE000200E4606E000BFAD
:1035900034F8101026F81010401C80B2B0EBC50FA4
:1035A000F6D304EB05112046FCF785FE002009E068
:1035B00000EBC70236F8101004EB4202401CA2F8E0
:1035C000001C80B2B0EBC50FF2D30DF5717DF0BDDC
:1035D00000EBC70104EB4101B1F8001C26F8101004
:1035E000401C80B2B0EBC50FF2D304EB05102146AE
:1035F000FCF761FE002005E036F8101024F81010EA
:10360000401C80B2B0EBC50FF6D3DEE75A040020B1
:1036100040F2E163024A04210248FEF701BC0000C7
:1036200098020020940000200907090E002804DBFE
:1036300000F1E02080F80014704700F00F0000F166
:10364000E02080F8141D70477047000008B5FDF7B2
:1036500059FAFFF7EDFAFFF73FF8FFF717F8FFF712
:10366000BBF9FFF779F8FFF7BBF8FFF767F9FFF74A
:103670001BF9BB480068C16841F01001C160DFF868
:10368000E4B2B949B6489BF80020FEF751FFB749AC
:103690006FF0010009680861B448FEF7D3F8DFF85D
:1036A000D092DFF8D0A2DFF8D082B44C002500BF62
:1036B00099F80010012971D1AB4FB04889F800503A
:1036C0003A78AFA1401CFCF785FDAC4E7A78761CA9
:1036D000ABA1701CFCF77EFD3078522810D17078B9
:1036E0004D2872D1B8788DF80000F8788DF8010077
:1036F00038798DF8020000226946A248FDF736FFAE
:1037000030784D281FD17078462872D1B87831288A
:1037100005D100219C4B04220846FFF75FFCB878D6
:10372000322806D100214FF07C5304220846FFF7CF
:1037300055FCB878332806D100214FF07E5304227F
:103740000846FFF74BFC30784C2852D170784D2852
:103750004FD1B87858B98D48257005708C480570E0
:103760008C48057025816581FFF765FEA580B878D6
:1037700001280FD12070854805708548057085485F
:10378000057025816581FFF756FEF878422806D03E
:103790001420A080B878022803D013E031E03879F3
:1037A000F7E702202070794805707948057079485C
:1037B000057025816581FFF73EFEF878422805D027
:1037C0001420A080B878032802D012E03879F8E7F6
:1037D000032020706D4805706D4805706D480570B8
:1037E00025816581FFF727FEF87842280ED0142046
:1037F000A08069485C4905709BF800205848FEF796
:1038000097FE9AF80010012902D01CE03879EFE702
:103810008AF80050002269465A48FDF76FFD574864
:1038200052210C3005220170302141709DF80010AA
:1038300081709DF80110C1709DF802100171014660
:103840004748FEF78DFE2078012814D14023A28836
:103850006421E088FFF766FE4C480178012908D111
:103860000570E088401C80B2E080B0F5B47F00D9DC
:10387000E580258165812078022824D1267A474673
:1038800014E0304600F06CF9394600F07DF900F0A4
:1038900047F980B23346A2886421FFF7DDFDFFF7C8
:1038A000B7FE2089401C761C2081F6B2402EE8D35A
:1038B00037480178012905D105700220FFF748FE3D
:1038C000FFF7A6FE6581207803287FF4F1AEA67A83
:1038D00037E03EB1192E05D0232E03D02D2E01D076
:1038E000372E19D10027304600F03AF9414600F052
:1038F0004BF900F015F93346761C002280B2F6B27F
:103900001146FFF7A9FDFFF783FE60897F1C401C6D
:10391000FFB260810F2FE6D3304600F021F9414617
:1039200000F032F900F0FCF880B23346A2880021A2
:10393000FFF792FDFFF76CFE6089401C761C6081EA
:10394000F6B2402EC5D313480178012905D1057080
:103950000220FFF7FDFDFFF75BFE2581A8E60000D2
:103960006801002014000020340200204C000020D8
:1039700016000020170000200000B44002000020C4
:103980002563000038000020CDCCCC3D180000207D
:10399000190000201A000020150000204FF47F0CB1
:1039A0001CEAD0121EBF1CEAD11392EA0C0F93EA54
:1039B0000C0F00F0858090EA010F48BF42F480723E
:1039C00040F4000C41F400002CF07F4120F07F40D7
:1039D00000B58142A2EB03020FF2081CACEB504E83
:1039E000C0F100009EF800E04FEA4E0E00FB0EFC16
:1039F00038BF49004FEA2C1C02F5FA020CFB0EF30B
:103A00004FEACE1E4FEA112C4FEAC1210EEB635E46
:103A100042EB22420EFB0CFC4FEA1C5300FB03114D
:103A20004FEA112C4FEA01310EFB0CFC4FEADC4C43
:103A300000FB0C11C14228BF09184CEB03335DF8A1
:103A400004EB10EB410143EBC250B2F57C0F38BFE1
:103A5000704729D512F0F00F1CBF00F1C04000F0F4
:103A600000407047008182838485868788898B8C9B
:103A70008D8E8F919293959697999A9C9D9FA0A2D7
:103A8000A3A5A7A8AAACAEB0B2B3B5B7B9BCBEC027
:103A9000C2C5C7C9CCCED1D4D7D9DCDFE2E6E9ECC8
:103AA000F0F3F7FAFE0000004FEA400C0CF1807CC6
:103AB000BCF17E4F28BF7047B0F1C04000F02BB979
:103AC00090EA010F0CEAD11348BF42F480726245BC
:103AD00038BF634507D213F47F0F16D080EA010088
:103AE00000F00040704710B500F0CFF8097EFC3EB2
:103AF00000F005B880EA010000F00040704780EA5D
:103B0000010000F0004000F006B912F47F0F04BF7E
:103B10000248704780EA010000F0FDB80000C07F55
:103B2000C10DD1F19E0206DB4FEA002343F00043B2
:103B300023FA02F07047004207D54FEA4001B1F185
:103B4000FE4F02D24FF00000704710B500F09DF814
:103B500049922480002070476FEA200070470000DF
:103B6000B0FA80F310FA03F2C3F19D030AD0D9052D
:103B700001EB1220530638BF704700F1010008BF67
:103B800020F00100704700004FF47F0C1CEAD012B7
:103B90001EBF1CEAD11392EA0C0F93EA0C0F00F03F
:103BA000478090EA010F48BF42F480724FF0004C0A
:103BB0004CEA00204CEA012102EB0302A0FB0113B6
:103BC000A2F50002002918BF43F001035B0028BFE3
:103BD0004FEA330342EB22425FEA132C4CEBC25014
:103BE0002EBFBCEB436FB2F57C0F70474FEA036CFE
:103BF000BCF1004F08BF20F00100B2F57C0F38BFC8
:103C000070470BD582F0FF0212F5803FC8BF7047A6
:103C100000F1C040D8BF00F00040704700F5000C34
:103C20005FEA4C0C48BF7047B0F1C04000F073B879
:103C300090EA010F0CEAD11348BF42F4807262454A
:103C400038BF634504D280EA010000F000407047AD
:103C500010B500F01AF800BF8900013E00F007B867
:103C600000F009B85FEA410C5FEA1C6C08D080EAFA
:103C7000010000F050B85FEA400C5FEA1C6CF6D11E
:103C80004FF00040A0F5800070470EF1020E2EF0BC
:103C9000030E5EF8044B244204D44FEA4102B2F111
:103CA0007F4F11D84FEA4003B3F17F4F0CD80ED1AC
:103CB0004FEAD07CB2F17F4F0CEB4C0C0CF1020CB4
:103CC00008BF4CEBD17C04E04FF0080C01E04FEA58
:103CD000D17C0CEB4C0324FA03F404F00704B4F198
:103CE000040C06D20EEB840CBDE810404CF0010C25
:103CF0006047DFE80CF0070802024FF00040A0F533
:103D0000800010BD0846420018BFD2F1807288BF03
:103D100000F0004010BDFF2141EAD050C0057047BF
:103D2000000000000000000001020304060708096B
:103D30000000000001020304583D000800000020BC
:103D40003800000028010008903D000838000020DD
:103D50004818000044010008A00F000000001400F3
:103D600000000000000000000000000064000000EF
:103D70000000000000000000000000000000000043
:103D80000100000010000000000000000024F4000A
:04000005080000ED02
:00000001FF
